:100000000C9434000C9446000C9446000C9446006A
:100010000C9446000C9446000C9446000C94460048
:100020000C9446000C9446000C9446000C94460038
:100030000C9446000C9446000C9446000C94460028
:100040000C9446000C944E000C9446000C94460010
:100050000C9446000C9446000C9446000C94460008
:100060000C9446000C94460011241FBECFEFD8E03C
:10007000DEBFCDBF21E0A0E0B1E001C01D92A13004
:10008000B207E1F70E946B000C9476000C9400001C
:10009000249A22988CB5816C8CBD08951F920F9282
:1000A0000FB60F9211248F930DB407FEFDCF8EB5BE
:1000B000809300015E9A80910001813309F45F9A78
:1000C00080910001823309F45F988F910F900FBEE9
:1000D0000F901F9018950E9448008AB1806C8AB9D1
:1000E0008BB180748BB95F987894FFCFF894FFCF71
:00000001FF
