:100000000C9434000C943E000C943E000C943E0082
:100010000C943E000C943E000C943E000C943E0068
:100020000C943E000C943E000C943E000C943E0058
:100030000C943E000C943E000C943E000C943E0048
:100040000C943E000C943E000C943E000C943E0038
:100050000C943E000C943E000C943E000C943E0028
:100060000C943E000C943E0011241FBECFEFD8E04C
:10007000DEBFCDBF0E9440000C9458000C940000DD
:100080008AB1806C8AB952988BB18C608BB990E43C
:100090004A9906C08BB189278BB94A9BFECFF8CF0E
:1000A0004B99F6CF8BB180588BB94B9BFECFF0CFDD
:0400B000F894FFCFF2
:00000001FF
