:100000000C9434000C9446000C9446000C9446006A
:100010000C9446000C9446000C9446000C94460048
:100020000C9446000C9446000C9446000C94460038
:100030000C9446000C9446000C9446000C94460028
:100040000C9446000C944E000C9446000C94460010
:100050000C9446000C9446000C9446000C94460008
:100060000C9446000C94460011241FBECFEFD8E03C
:10007000DEBFCDBF21E0A0E0B1E001C01D92A13004
:10008000B207E1F70E947C000C9483000C940000FE
:10009000249A23988CB5806C8CBD08951F920F9282
:1000A0000FB60F9211242F938F939F930DB407FED9
:1000B000FDCF8EB58093000180910001813421F441
:1000C0008BB190E489278BB980910001823419F4B7
:1000D0008BB180588BB92FEF81EE94E02150804096
:1000E0009040E1F700C000009F918F912F910F90F9
:1000F0000FBE0F901F9018958AB1806C8AB90E942C
:0A01000048007894FFCFF894FFCF79
:00000001FF
