:100000000C9434000C943E000C9440000C943E0080
:100010000C943E000C943E000C943E000C943E0068
:100020000C943E000C943E000C943E000C943E0058
:100030000C943E000C943E000C943E000C943E0048
:100040000C943E000C943E000C943E000C943E0038
:100050000C943E000C943E000C943E000C943E0028
:100060000C943E000C943E0011241FBECFEFD8E04C
:10007000DEBFCDBF0E9451000C945B000C940000C9
:100080001F920F920FB60F9211248F938BB180584D
:100090008BB95B9BFECF8F910F900FBE0F901F907F
:1000A000189553985B9A80916900886080936900E5
:0A00B000E99A7894FFCFF894FFCF8F
:00000001FF
